:100000000C942A000C9447000C9447000C94470071
:100010000C9447000C9447000C9447000C94470044
:100020000C9447000C9447000C9447000C94470034
:100030000C9447000C9447000C9447000C94470024
:100040000C949D070C9447000C9447000C944700B7
:100050000C94470011241FBECFE5D8E0DEBFCDBF12
:1000600010E0A0E6B0E0E4E3FFE202C005900D92EC
:10007000AA38B107D9F710E0AAE8B0E001C01D9294
:10008000AD38B107E1F70E943E120C9498170C941A
:100090000000EF92FF920F931F937B018C0120E0F1
:1000A00030E040E05FE40E94F50388238CF0C80153
:1000B000B70120E030E040E05FE40E94C1010E940F
:1000C00055049B01AC01205030404040504806C0D0
:1000D000C801B7010E9455049B01AC01B901CA01D6
:1000E0001F910F91FF90EF900895A0E0B0E0EBE733
:1000F000F0E00C946117DC012B01FA019C91923025
:1001000008F439C1EB018881823008F433C194309E
:1001100069F4843009F02FC111969C91119789815F
:10012000981709F428C1A2E8B0E025C1843009F489
:1001300021C18230A9F4923009F01DC19A01AD01AC
:1001400088E0EA010990AE01E90109929E0181501F
:10015000C1F7E201898111969C918923818308C1AD
:10016000923009F407C112962D903C901397EB0141
:100170008A819B811496AD90BD90CD90DC901797AD
:10018000EC80FD800E811F819101281B390BB90184
:1001900037FF04C066277727621B730B6032710537
:1001A0000CF061C0121613066CF537014801062EDB
:1001B00004C096948794779467940A94D2F721E0C8
:1001C00030E040E050E004C0220F331F441F551FB1
:1001D0006A95D2F721503040404050402E213F21B7
:1001E00040235123211531054105510521F021E01E
:1001F00030E040E050E079018A01E628F72808293C
:1002000019293CC0232BD1F1260E371E350146019A
:10021000062E04C096948794779467940A94D2F734
:1002200021E030E040E050E004C0220F331F441FC3
:10023000551F6A95D2F721503040404050402A2146
:100240003B214C215D21211531054105510521F04E
:1002500021E030E040E050E059016A01A628B728CB
:10026000C828D9280BC0821593052CF01C01AA249C
:10027000BB24650103C0EE24FF24870111969C91E5
:10028000D20111968C91981709F445C0992339F041
:10029000A80197012A193B094C095D0906C0A6016E
:1002A00095012E193F09400B510B57FD08C01182D3
:1002B0003382228224833583468357831DC081E0A5
:1002C00081833382228288279927DC01821B930B4A
:1002D000A40BB50B84839583A683B7830DC0220F2F
:1002E000331F441F551F24833583468357838281E0
:1002F000938101979383828324813581468157813D
:10030000DA01C9010197A109B1098F5F9F4FAF4F72
:10031000BF4328F30BC0918333822282EA0CFB1C7B
:100320000C1D1D1DE482F5820683178383E0808304
:10033000248135814681578157FF1AC0C901AA27F8
:1003400097FDA095BA2F81709070A070B0705695EF
:10035000479537952795822B932BA42BB52B848318
:100360009583A683B7838281938101969383828349
:10037000DF0101C0D201CD01CDB7DEB7E2E10C94BF
:100380007D17A0E2B0E0E7ECF1E00C946D17698313
:100390007A838B839C832D833E834F835887E9E048
:1003A000EE2EF12CEC0EFD1ECE010196B7010E943F
:1003B0007E058E010F5E1F4FCE010596B8010E948B
:1003C0007E058A8991E089278A8BC701B801AE0131
:1003D000475E5F4F0E9475000E94A904A096E6E068
:1003E0000C948917A0E2B0E0E8EFF1E00C946D17EF
:1003F00069837A838B839C832D833E834F835887C5
:10040000F9E0EF2EF12CEC0EFD1ECE010196B701A6
:100410000E947E058E010F5E1F4FCE010596B8012A
:100420000E947E05C701B801AE01475E5F4F0E9482
:1004300075000E94A904A096E6E00C948917A0E23A
:10044000B0E0E5E2F2E00C94611769837A838B8374
:100450009C832D833E834F835887CE010196BE0136
:10046000675F7F4F0E947E05CE010596BE016F5EDD
:100470007F4F0E947E059985923088F0898982306D
:10048000C8F0943019F4823051F404C0843029F457
:10049000923081F482E890E0C6C0923049F420E0C6
:1004A0009A858A89981321E02A87CE010996BBC0D4
:1004B000823049F420E09A858A89981321E02A8BBA
:1004C000CE014196B0C02D843E844F8458886D88FB
:1004D0007E888F88988CEE24FF248701AA24BB2471
:1004E000650140E050E060E070E0E0E0F0E0C10174
:1004F00081709070892BE9F0E60CF71C081D191D1E
:100500009A01AB012A0D3B1D4C1D5D1D80E090E062
:10051000A0E0B0E0E614F7040805190520F481E036
:1005200090E0A0E0B0E0BA01A901480F591F6A1F8E
:100530007B1FAA0CBB1CCC1CDD1C97FE08C081E0F5
:1005400090E0A0E0B0E0A82AB92ACA2ADB2A3196B6
:10055000E032F10549F0660C771C881C991C569412
:10056000479437942794C3CFFA85EA892B893C892D
:100570008B859C85280F391F2E5F3F4F17C0CA01FE
:1005800081709070892B61F016950795F794E79428
:1005900080E090E0A0E0B0E8E82AF92A0A2B1B2BC3
:1005A00076956795579547952F5F3F4F77FDE7CF36
:1005B0000CC0440F551F661F771F17FD4160EE0CDE
:1005C000FF1C001F111F21503040403090E05907A0
:1005D00090E0690790E4790760F32B8F3C8FDB0193
:1005E000CA018F779070A070B07080349105A1051A
:1005F000B10561F447FD0AC0E114F10401051105DC
:1006000029F0405C5F4F6F4F7F4F40781A8EFE1786
:1006100011F081E08A8F4D8F5E8F6F8F78A383E01A
:10062000898FCE0149960E94A904A096E2E10C941C
:100630007D17A8E1B0E0EFE1F3E00C94691769835E
:100640007A838B839C832D833E834F835887B9E0C5
:10065000EB2EF12CEC0EFD1ECE010196B7010E948F
:100660007E058E010F5E1F4FCE010596B8010E94D8
:100670007E052985223008F47EC03989323010F495
:10068000B8017CC08A859A8989278A87243011F02D
:10069000223031F4231709F06EC062E870E06EC0BA
:1006A000343039F41D861E861F86188A1C861B86E8
:1006B00004C0323021F484E08987B7015FC02B8504
:1006C0003C858B899C89281B390B3C872B87ED84C3
:1006D000FE840F851889AD88BE88CF88D88CEA142F
:1006E000FB040C051D0540F4EE0CFF1C001F111F40
:1006F000215030403C872B8720E030E040E050E044
:1007000080E090E0A0E0B0E460E070E0EA14FB0478
:100710000C051D0540F0282B392B4A2B5B2BEA18C2
:10072000FB080C091D09B695A79597958795EE0CC2
:10073000FF1C001F111F6F5F7F4F6F31710531F775
:10074000DA01C9018F779070A070B0708034910584
:10075000A105B10561F427FD0AC0E114F10401050A
:10076000110529F0205C3F4F4F4F5F4F20782D87B8
:100770003E874F87588BBE01675F7F4FCB010E943A
:10078000A9046896EAE00C948517A8E1B0E0EBECC8
:10079000F3E00C946D1769837A838B839C832D839C
:1007A0003E834F83588789E0E82EF12CEC0EFD1E26
:1007B000CE010196B7010E947E058E010F5E1F4F8C
:1007C000CE010596B8010E947E058985823040F0F1
:1007D0008989823028F0C701B8010E94F60501C05E
:1007E0008FEF6896E6E00C948917A8E1B0E0EBEF94
:1007F000F3E00C946D1769837A838B839C832D833C
:100800003E834F83588789E0E82EF12CEC0EFD1EC5
:10081000CE010196B7010E947E058E010F5E1F4F2B
:10082000CE010596B8010E947E058985823040F090
:100830008989823028F0C701B8010E94F60501C0FD
:100840008FEF6896E6E00C948917A8E1B0E0EBE240
:10085000F4E00C946D1769837A838B839C832D83DA
:100860003E834F83588789E0E82EF12CEC0EFD1E65
:10087000CE010196B7010E947E058E010F5E1F4FCB
:10088000CE010596B8010E947E058985823040F030
:100890008989823028F0C701B8010E94F60501C09D
:1008A00081E06896E6E00C948917ACE0B0E0EBE5F7
:1008B000F4E00C94711769837A838B839C83CE0157
:1008C0000196BE016B5F7F4F0E947E058D81823055
:1008D00061F1823050F1843021F48E81882351F10E
:1008E0002EC02F81388537FD20C06E812F31310514
:1008F0001CF06623F9F023C08EE190E0821B930B7D
:1009000029853A854B855C8504C056954795379572
:1009100027958A95D2F76623B1F05095409530958A
:1009200021953F4F4F4F5F4F0EC020E030E040E039
:1009300050E009C02FEF3FEF4FEF5FE704C020E02A
:1009400030E040E050E8B901CA012C96E2E00C9496
:100950008D17DF92EF92FF920F931F93FC01E480BB
:10096000F58006811781D1808081823048F480E053
:1009700090E0A0E1B0E0E82AF92A0A2B1B2BA5C0E1
:10098000843009F49FC0823021F4EE24FF248701D3
:1009900005C0E114F1040105110519F4E0E0F0E0EF
:1009A00096C0628173819FEF623879070CF05BC05B
:1009B00022E83FEF261B370B2A3131052CF020E0CF
:1009C00030E040E050E02AC0B801A701022E04C088
:1009D00076956795579547950A94D2F781E090E010
:1009E000A0E0B0E004C0880F991FAA1FBB1F2A9582
:1009F000D2F70197A109B1098E219F21A023B1232C
:100A00000097A105B10521F081E090E0A0E0B0E001
:100A10009A01AB01282B392B4A2B5B2BDA01C90138
:100A20008F779070A070B07080349105A105B105EA
:100A300039F427FF09C0205C3F4F4F4F5F4F04C080
:100A4000215C3F4F4F4F5F4FE0E0F0E02030A0E0EF
:100A50003A07A0E04A07A0E45A0710F0E1E0F0E00E
:100A600079018A0127C06038710564F5FB01E158FE
:100A7000FF4FD801C7018F779070A070B07080349D
:100A80009105A105B10539F4E7FE0DC080E490E0C1
:100A9000A0E0B0E004C08FE390E0A0E0B0E0E80E9A
:100AA000F91E0A1F1B1F17FF05C016950795F7941F
:100AB000E794319687E016950795F794E7948A9521
:100AC000D1F705C0EE24FF248701EFEFF0E06E2F91
:100AD000679566276795902F9F77D794DD24D794E5
:100AE0008E2F8695492F462B582F5D29B701CA01B5
:100AF0001F910F91FF90EF90DF900895FC01DB01B3
:100B0000408151812281622F6F7770E0221F22275E
:100B1000221F9381892F880F822B282F30E0991F65
:100B20009927991F11969C93119721153105A9F5C5
:100B3000411551056105710511F482E037C082E865
:100B40009FEF13969C938E9312979A01AB0167E0E7
:100B5000220F331F441F551F6A95D1F783E08C93F2
:100B60000DC0220F331F441F551F12968D919C916B
:100B70001397019713969C938E931297203080E0E1
:100B8000380780E0480780E4580758F314962D93FF
:100B90003D934D935C93179708952F3F310579F45A
:100BA000411551056105710519F484E08C93089590
:100BB00064FF03C081E08C9312C01C9210C02F57B9
:100BC000304013963C932E93129783E08C9387E0EA
:100BD000440F551F661F771F8A95D1F770641496CE
:100BE0004D935D936D937C93179708951F93DC014C
:100BF000FB019C91923008F447C08081823008F458
:100C000043C0943051F411961C91843099F5818140
:100C1000682F70E0611B71093FC0843021F0923071
:100C200031F48230B9F18181882389F12DC0119688
:100C30001C9111978230F1F081811817D9F4129626
:100C40002D913C911397828193818217930794F0A1
:100C500028173907BCF014968D919D910D90BC9189
:100C6000A02D2481358146815781281739074A07ED
:100C70005B0718F4112341F00AC082179307A407F9
:100C8000B50740F4112319F061E070E005C06FEF83
:100C90007FEF02C060E070E0CB011F910895DF9309
:100CA000CF93CDB7DEB7A7E2B0E0E7E2F0E0808116
:100CB0008F778C93A7E2B0E0E7E2F0E08081806478
:100CC0008C93A7E2B0E0E7E2F0E080818F7D8C9327
:100CD000A6E2B0E0E6E2F0E080818F7D8C93A6E2B0
:100CE000B0E0E6E2F0E0808184608C93A6E2B0E0C0
:100CF000E6E2F0E0808182608C93A6E2B0E0E6E27A
:100D0000F0E080818E7F8C93A6E2B0E0E6E2F0E036
:100D1000808180688C93CF91DF910895DF93CF938A
:100D200000D000D000D0CDB7DEB78C837E836D833A
:100D300081E08B831A8219828C818032A8F58D81A3
:100D40009E81009789F1A7E2B0E0E7E2F0E08081C0
:100D5000807E8C93A7E2B0E0E7E2F0E090818C81A6
:100D6000892B8C93A6E2B0E0E6E2F0E0808180641B
:100D70008C93E6E2F0E0808182958F70882F90E07E
:100D8000817090700097A9F3A6E2B0E0E6E2F0E08F
:100D9000808180618C93E4E2F0E080819181ED813B
:100DA000FE819183808301C01B828B8126960FB6C2
:100DB000F894DEBF0FBECDBFCF91DF910895DF93D2
:100DC000CF93CDB7DEB727970FB6F894DEBF0FBE2F
:100DD000CDBF8C837E836D8381E08B831A821982E1
:100DE0008C818032D0F58D819E810097B1F1A7E290
:100DF000B0E0E7E2F0E08081807E8C93A7E2B0E093
:100E0000E7E2F0E090818C81892B8C93A6E2B0E040
:100E1000E6E2F0E0808180648C93E6E2F0E080819D
:100E2000E6E2F0E0808182958F70882F90E08170FB
:100E30009070882381F0A6E2B0E0E6E2F0E08081E5
:100E400080618C93E4E2F0E080819181ED81FE810C
:100E50009183808303C01B8201C01B828B812796F4
:100E60000FB6F894DEBF0FBECDBFCF91DF910895CE
:100E7000DF93CF9300D000D0CDB7DEB78A837C83D9
:100E80006B8381E089838A81803278F58B819C81B4
:100E9000009759F180918C00882339F581E0809387
:100EA0008C008B819C8190938B0080938A00A6E2BA
:100EB000B0E0E6E2F0E0808188608C93A7E2B0E0E9
:100EC000E7E2F0E08081807E8C93A7E2B0E0E7E289
:100ED000F0E090818A81892B8C93A6E2B0E0E6E273
:100EE000F0E0808180648C9301C0198289810F9029
:100EF0000F900F900F90CF91DF910895DF93CF93D4
:100F000000D00F92CDB7DEB79B838A8381E08983BF
:100F10008A819B81009749F0E4E2F0E08081918131
:100F2000EA81FB819183808301C0198289810F90BE
:100F30000F900F90CF91DF9108951F920F920FB6EF
:100F40000F9211242F933F934F935F936F937F934F
:100F50008F939F93AF93BF93EF93FF93DF93CF93C1
:100F6000CDB7DEB780918A0090918B00009799F001
:100F700010928C00A6E2B0E0E6E2F0E08081877F8C
:100F80008C9320918A0030918B00E4E2F0E0808124
:100F90009181F9010995CF91DF91FF91EF91BF9177
:100FA000AF919F918F917F916F915F914F913F9101
:100FB0002F910F900FBE0F901F901895DF93CF9336
:100FC000CDB7DEB7EAE3F0E01082E7E3F0E08FEFC1
:100FD0008083E4E3F0E087E08083E1E3F0E01082E7
:100FE000EBE3F0E01082E8E3F0E01082E5E3F0E00C
:100FF0001082E2E3F0E01082CF91DF910895DF9359
:10100000CF93CDB7DEB72E970FB6F894DEBF0FBEE5
:10101000CDBF8A836B834C8381E089838A8184304E
:1010200008F00CC18B81883008F008C18C818130B8
:1010300021F08C81882309F001C18A81282F30E0BA
:101040003E872D878D859E858130910509F44FC09F
:101050002D853E85223031052CF48D859E850097A7
:1010600071F0EDC02D853E852230310509F477C041
:101070008D859E858330910509F4A9C0E0C08C81DF
:10108000282F30E03C872B878B859C850097D1F0FB
:101090002B853C852130310509F0D1C0AAE3B0E0B1
:1010A000EAE3F0E08081482F8B81282F30E081E057
:1010B00090E0022E02C0880F991F0A94E2F7842B59
:1010C0008C93BDC0AAE3B0E0EAE3F0E08081482F52
:1010D0008B81282F30E081E090E0022E02C0880F43
:1010E000991F0A94E2F7809584238C93A8C08C8181
:1010F000282F30E03A87298789859A850097D1F093
:1011000029853A852130310509F099C0A7E3B0E07F
:10111000E7E3F0E08081482F8B81282F30E081E0E9
:1011200090E0022E02C0880F991F0A94E2F7842BE8
:101130008C9385C0A7E3B0E0E7E3F0E08081482F1F
:101140008B81282F30E081E090E0022E02C0880FD2
:10115000991F0A94E2F7809584238C9370C08C8148
:10116000282F30E038872F838F8198850097D1F022
:101170002F8138852130310509F061C0A4E3B0E04A
:10118000E4E3F0E08081482F8B81282F30E081E07C
:1011900090E0022E02C0880F991F0A94E2F7842B78
:1011A0008C934DC0A4E3B0E0E4E3F0E08081482FED
:1011B0008B81282F30E081E090E0022E02C0880F62
:1011C000991F0A94E2F7809584238C9338C08C8110
:1011D000282F30E03E832D838D819E810097C9F0BA
:1011E0002D813E812130310551F5A1E3B0E0E1E3ED
:1011F000F0E08081482F8B81282F30E081E090E063
:10120000022E02C0880F991F0A94E2F7842B8C9358
:1012100016C0A1E3B0E0E1E3F0E08081482F8B81CC
:10122000282F30E081E090E0022E02C0880F991F45
:101230000A94E2F7809584238C9301C019828981F6
:101240002E960FB6F894DEBF0FBECDBFCF91DF91C3
:101250000895DF93CF93CDB7DEB72E970FB6F894EE
:10126000DEBF0FBECDBF8A836B834C8381E0898351
:101270008B81883008F008C18A81282F30E03E87B2
:101280002D878D859E858130910509F450C02D856F
:101290003E85223031052CF48D859E85009771F0B6
:1012A000F1C02D853E852230310509F479C08D8548
:1012B0009E858330910509F4ACC0E4C08C81282F51
:1012C00030E03C872B878B859C850097C9F02B8568
:1012D0003C852130310549F5ABE3B0E0EBE3F0E0CC
:1012E0008081482F8B81282F30E081E090E0022E12
:1012F00002C0880F991F0A94E2F7842B8C93C5C013
:10130000ABE3B0E0EBE3F0E08081482F8B81282F46
:1013100030E081E090E0022E02C0880F991F0A940D
:10132000E2F7809584238C93B0C01982AEC08C8183
:10133000282F30E03A87298789859A850097C9F058
:1013400029853A852130310549F5A8E3B0E0E8E385
:10135000F0E08081482F8B81282F30E081E090E001
:10136000022E02C0880F991F0A94E2F7842B8C93F7
:101370008CC0A8E3B0E0E8E3F0E08081482F8B81E7
:10138000282F30E081E090E0022E02C0880F991FE4
:101390000A94E2F7809584238C9377C0198275C0F4
:1013A0008C81282F30E038872F838F819885009794
:1013B000C9F02F8138852130310549F5A5E3B0E02A
:1013C000E5E3F0E08081482F8B81282F30E081E039
:1013D00090E0022E02C0880F991F0A94E2F7842B36
:1013E0008C9353C0A5E3B0E0E5E3F0E08081482FA3
:1013F0008B81282F30E081E090E0022E02C0880F20
:10140000991F0A94E2F7809584238C933EC0198239
:101410003CC08C81282F30E03E832D838D819E81BE
:101420000097C9F02D813E812130310549F5A2E3B5
:10143000B0E0E2E3F0E08081482F8B81282F30E09C
:1014400081E090E0022E02C0880F991F0A94E2F713
:10145000842B8C931AC0A2E3B0E0E2E3F0E0808139
:10146000482F8B81282F30E081E090E0022E02C0CF
:10147000880F991F0A94E2F7809584238C9305C006
:10148000198203C0198201C0198289812E960FB674
:10149000F894DEBF0FBECDBFCF91DF910895DF93EB
:1014A000CF93CDB7DEB728970FB6F894DEBF0FBE47
:1014B000CDBF8B836C835E834D8381E08A838B8178
:1014C000843008F09FC08C81883008F09BC08D81EB
:1014D0009E81009709F496C08B81282F30E03887D1
:1014E0002F834F81588541305105A9F18F8198850F
:1014F0008230910534F42F8138852115310571F042
:1015000082C04F8158854230510509F441C08F8116
:1015100098858330910509F458C075C0E9E3F0E07F
:101520008081282F30E08C81882F90E0A90102C0B3
:10153000559547958A95E2F7CA018170898389811B
:10154000882321F4ED81FE8110825DC0ED81FE8152
:1015500081E0808358C0E6E3F0E08081282F30E00E
:101560008C81882F90E0A90102C0559547958A95F6
:10157000E2F7CA01817089838981882321F4ED8192
:10158000FE81108240C0ED81FE8181E080833BC0FE
:10159000E3E3F0E08081282F30E08C81882F90E019
:1015A000A90102C0559547958A95E2F7CA01817055
:1015B00089838981882321F4ED81FE81108223C0F3
:1015C000ED81FE8181E080831EC0E0E3F0E0808158
:1015D000282F30E08C81882F90E0A90102C055951A
:1015E00047958A95E2F7CA018170898389818823AA
:1015F00021F4ED81FE81108206C0ED81FE8181E043
:10160000808301C01A828A8128960FB6F894DEBFC3
:101610000FBECDBFCF91DF910895DF93CF93CDB7AC
:10162000DEB72D970FB6F894DEBF0FBECDBF8A830D
:101630006B8381E089838B81813021F08B818823CA
:1016400009F082C08A81282F30E03D872C878C8565
:101650009D858130910571F12C853D8522303105C4
:101660002CF48C859D85009769F06CC02C853D8598
:1016700022303105B9F18C859D858330910509F4BF
:1016800049C060C08B81282F30E03B872A878A853C
:101690009B85009731F02A853B852130310529F063
:1016A00054C0EAE3F0E0108250C0EAE3F0E08FEFCC
:1016B00080834BC08B81282F30E03987288788852D
:1016C0009985009731F0288539852130310529F039
:1016D0003CC0E7E3F0E0108238C0E7E3F0E08FEFD2
:1016E000808333C08B81282F30E03F832E838E810F
:1016F0009F81009731F02E813F812130310529F003
:1017000024C0E4E3F0E0108220C0E4E3F0E08FEFD7
:1017100080831BC08B81282F30E03D832C838C81FC
:101720009D81009731F02C813D812130310529F0D8
:101730000CC0E1E3F0E0108208C0E1E3F0E08FEFDD
:10174000808303C0198201C0198289812D960FB64A
:10175000F894DEBF0FBECDBFCF91DF910895DF9328
:10176000CF9300D000D00F92CDB7DEB78A836B83C2
:1017700081E089838A81282F30E03D832C838C810E
:101780009D8181309105D1F02C813D812230310540
:101790002CF48C819D81009761F01FC02C813D81CC
:1017A0002230310581F08C819D818330910581F05B
:1017B00014C0EBE3F0E08B81808310C0E8E3F0E03D
:1017C0008B8180830BC0E5E3F0E08B81808306C0D2
:1017D000E2E3F0E08B81808301C0198289810F9060
:1017E0000F900F900F900F90CF91DF910895DF939E
:1017F000CF9300D000D000D0CDB7DEB78A837C83F2
:101800006B8381E089838B819C810097E9F18A81D8
:10181000282F30E03E832D838D819E81813091057C
:10182000E1F02D813E81223031052CF48D819E81A5
:10183000009761F027C02D813E8122303105A1F053
:101840008D819E8183309105B1F01CC0E9E3F0E009
:101850008081EB81FC81808318C0E6E3F0E0808129
:10186000EB81FC81808311C0E3E3F0E08081EB81B8
:10187000FC8180830AC0E0E3F0E08081EB81FC81A1
:10188000808303C0198201C01982898126960FB610
:10189000F894DEBF0FBECDBFCF91DF9108950F93B7
:1018A0001F93DF93CF93CDB7DEB7CC54D0400FB6A4
:1018B000F894DEBF0FBECDBFFE01E75BFF4F80E0B7
:1018C00090E0ACE0B2E480839183A283B3838E0185
:1018D0000B5B1F4FFE01E75BFF4F608171818281CF
:1018E000938120E030E04AEF54E40E941F02DC01C3
:1018F000CB01F80180839183A283B383FE01EB5B6C
:10190000FF4F608171818281938120E030E040E867
:101910005FE30E942504882344F4FE01ED5BFF4F42
:1019200081E090E09183808364C0FE01EB5BFF4F18
:10193000608171818281938120E03FEF4FE757E41E
:101940000E94C50318160CF043C0FE01E75BFF4F71
:10195000608171818281938120E030E040E251E436
:101960000E941F02DC01CB018E010D5B1F4FBC01E9
:10197000CD010E944900DC01CB01F80191838083F5
:101980001FC0FE01EF5BFF4F88EC90E091838083E6
:10199000FE01EF5BFF4F808191810197F1F7FE011E
:1019A000EF5BFF4F91838083DE01AD5BBF4FFE0194
:1019B000ED5BFF4F80819181019711969C938E93EF
:1019C000FE01ED5BFF4F808191810097D1F624C02D
:1019D0008E010D5B1F4FFE01EB5BFF4F608171813C
:1019E000828193810E944900DC01CB01F80191833F
:1019F0008083FE01ED5BFF4F80819181FE01FF96A8
:101A000091838083FE01FF96808191810197F1F798
:101A1000FE01FF969183808388E30E94120F80E08D
:101A200090E0A0E2B2E48BAF9CAFADAFBEAF6BADC8
:101A30007CAD8DAD9EAD2BEA3AEA4AE250E40E94BD
:101A40001F02DC01CB018FAB98AFA9AFBAAF6FA972
:101A500078AD89AD9AAD20E030E040E85FE30E94C8
:101A6000250488231CF481E08EAB91C06FA978AD6A
:101A700089AD9AAD20E030E04FE753E40E94C50302
:101A800018160CF07BC06BAD7CAD8DAD9EAD20E02B
:101A900030E04AE754E40E941903DC01CB018AAB31
:101AA0009BABACABBDAB6AA97BA98CA99DA920E07F
:101AB00030E04AEF54E40E941F02DC01CB018EA704
:101AC0009FA7A8ABB9AB6EA57FA588A999A920E06F
:101AD00030E040E85FE30E94250488232CF481E095
:101AE00090E09DA78CA73FC06EA57FA588A999A966
:101AF00020E03FEF4FE757E40E94C50318164CF56E
:101B00006AA97BA98CA99DA920E030E040E251E4BC
:101B10000E941F02DC01CB01BC01CD010E944900E3
:101B2000DC01CB019DA78CA70FC088EC90E09BA7A0
:101B30008AA78AA59BA50197F1F79BA78AA78CA5E1
:101B40009DA501979DA78CA78CA59DA5009769F7DA
:101B500024C06EA57FA588A999A90E944900DC012F
:101B6000CB019DA78CA78CA59DA599A788A788A523
:101B700099A50197F1F799A788A70FC06FA978AD2C
:101B800089AD9AAD0E944900DC01CB018EAB8EA9D4
:101B90008FA38FA18A95F1F78FA38FE00E94120F78
:101BA00080E090E0A0E2B2E48BA39CA3ADA3BEA32F
:101BB0006BA17CA18DA19EA12BEA3AEA4AE250E4F6
:101BC0000E941F02DC01CB018F8F98A3A9A3BAA3A7
:101BD0006F8D78A189A19AA120E030E040E85FE311
:101BE0000E94250488231CF481E08E8F91C06F8DA4
:101BF00078A189A19AA120E030E04FE753E40E9448
:101C0000C50318160CF07BC06BA17CA18DA19EA111
:101C100020E030E04AE754E40E941903DC01CB01E4
:101C20008A8F9B8FAC8FBD8F6A8D7B8D8C8D9D8DA8
:101C300020E030E04AEF54E40E941F02DC01CB01B7
:101C40008E8B9F8BA88FB98F6E897F89888D998D98
:101C500020E030E040E85FE30E94250488232CF474
:101C600081E090E09D8B8C8B3FC06E897F89888D51
:101C7000998D20E03FEF4FE757E40E94C503181607
:101C80004CF56A8D7B8D8C8D9D8D20E030E040E29F
:101C900051E40E941F02DC01CB01BC01CD010E9476
:101CA0004900DC01CB019D8B8C8B0FC088EC90E050
:101CB0009B8B8A8B8A899B890197F1F79B8B8A8BF7
:101CC0008C899D8901979D8B8C8B8C899D89009730
:101CD00069F724C06E897F89888D998D0E9449009B
:101CE000DC01CB019D8B8C8B8C899D89998B888B9A
:101CF000888999890197F1F7998B888B0FC06F8D2F
:101D000078A189A19AA10E944900DC01CB018E8FA4
:101D10008E8D8F878F858A95F1F78F8781E00E945E
:101D2000120F80E090E0A0E0B0E48B879C87AD8745
:101D3000BE876B857C858D859E8520E030E04AEFEF
:101D400054E40E941F02DC01CB018F839887A9878E
:101D5000BA876F81788589859A8520E030E040E8F0
:101D60005FE30E94250488232CF481E090E09E83A9
:101D70008D833FC06F81788589859A8520E03FEF0C
:101D80004FE757E40E94C50318164CF56B857C8518
:101D90008D859E8520E030E040E251E40E941F02E4
:101DA000DC01CB01BC01CD010E944900DC01CB016B
:101DB0009E838D830FC088EC90E09C838B838B8106
:101DC0009C810197F1F79C838B838D819E81019784
:101DD0009E838D838D819E81009769F714C06F81EA
:101DE000788589859A850E944900DC01CB019E8314
:101DF0008D838D819E819A83898389819A810197C0
:101E0000F1F79A83898386E00E94120FC45BDF4F4B
:101E10000FB6F894DEBF0FBECDBFCF91DF911F91FB
:101E20000F910895DF93CF93CDB7DEB769970FB6C3
:101E3000F894DEBF0FBECDBF898F82E060E040E046
:101E40000E94290982E061E040E00E94290981E0C6
:101E5000698D0E94AF0B82E062E041E00E94290997
:101E600080E090E0A0E8BFE38D8B9E8BAF8BB88FB6
:101E70006D897E898F89988D2BEA3AEA4AE250E48F
:101E80000E941F02DC01CB01898B9A8BAB8BBC8B30
:101E900069897A898B899C8920E030E040E85FE39A
:101EA0000E94250488231CF481E0888B91C06989F5
:101EB0007A898B899C8920E030E04FE753E40E94C7
:101EC000C50318160CF07BC06D897E898F89988DAB
:101ED00020E030E04AE754E40E941903DC01CB0122
:101EE0008C879D87AE87BF876C857D858E859F8516
:101EF00020E030E04AEF54E40E941F02DC01CB01F5
:101F000088879987AA87BB87688579858A859B8515
:101F100020E030E040E85FE30E94250488232CF4B1
:101F200081E090E09F838E833FC0688579858A85B4
:101F30009B8520E03FEF4FE757E40E94C50318164A
:101F40004CF56C857D858E859F8520E030E040E2F4
:101F500051E40E941F02DC01CB01BC01CD010E94B3
:101F60004900DC01CB019F838E830FC088EC90E099
:101F70009D838C838C819D810197F1F79D838C8358
:101F80008E819F8101979F838E838E819F81009791
:101F900069F724C0688579858A859B850E944900F8
:101FA000DC01CB019F838E838E819F819B838A83FB
:101FB0008A819B810197F1F79B838A830FC069898E
:101FC0007A898B899C890E944900DC01CB01888B2E
:101FD0008889898389818A95F1F7898382E062E023
:101FE00040E00E94290969960FB6F894DEBF0FBE43
:101FF000CDBFCF91DF910895DF93CF93CDB7DEB7FB
:1020000069970FB6F894DEBF0FBECDBF898F82E00F
:1020100060E041E00E94290982E061E040E00E9426
:10202000290981E0698D0E94AF0B82E062E041E006
:102030000E94290980E090E0A0E8BFE38D8B9E8B91
:10204000AF8BB88F6D897E898F89988D2BEA3AEA9C
:102050004AE250E40E941F02DC01CB01898B9A8B7B
:10206000AB8BBC8B69897A898B899C8920E030E0B5
:1020700040E85FE30E94250488231CF481E0888BFC
:1020800091C069897A898B899C8920E030E04FE78B
:1020900053E40E94C50318160CF07BC06D897E893D
:1020A0008F89988D20E030E04AE754E40E941903BC
:1020B000DC01CB018C879D87AE87BF876C857D85D2
:1020C0008E859F8520E030E04AEF54E40E941F0295
:1020D000DC01CB0188879987AA87BB8768857985CA
:1020E0008A859B8520E030E040E85FE30E9425047C
:1020F00088232CF481E090E09F838E833FC0688525
:1021000079858A859B8520E03FEF4FE757E40E9461
:10211000C50318164CF56C857D858E859F8520E05E
:1021200030E040E251E40E941F02DC01CB01BC011F
:10213000CD010E944900DC01CB019F838E830FC03B
:1021400088EC90E09D838C838C819D810197F1F7D1
:102150009D838C838E819F8101979F838E838E8147
:102160009F81009769F724C0688579858A859B855A
:102170000E944900DC01CB019F838E838E819F8169
:102180009B838A838A819B810197F1F79B838A8352
:102190000FC069897A898B899C890E944900DC017A
:1021A000CB01888B8889898389818A95F1F7898316
:1021B00082E062E040E00E94290969960FB6F89437
:1021C000DEBF0FBECDBFCF91DF910895DF93CF93D8
:1021D00000D00F92CDB7DEB79B838A8319820EC0E1
:1021E0008981282F30E08A819B81FC01E20FF31F57
:1021F00080810E94FC0F89818F5F89838981282FCC
:1022000030E08A819B81FC01E20FF31F80818823EB
:1022100039F70F900F900F90CF91DF910895DF93D2
:10222000CF93CDB7DEB762970FB6F894DEBF0FBE7F
:10223000CDBF9A8B898B1E821D821C821B828AE0F5
:10224000FE013796DF01982F1D929A95E9F71A82C1
:1022500023C08A81E82FF0E089899A892AE030E05A
:10226000B9010E944D17AC019F01220F331FCE010F
:102270000196820F931FFC01369651834083898912
:102280009A892AE030E0B9010E944D17CB019A8B60
:10229000898B8A818F5F8A8389899A890097C9F699
:1022A0008A818823C1F08A81882F90E001979C0160
:1022B000220F331FCE010196820F931FFC01369629
:1022C00080819181805D898389810E94FC0F8A8150
:1022D00081508A83E5CF62960FB6F894DEBF0FBEB9
:1022E000CDBFCF91DF910895DF93CF9300D000D081
:1022F0000F92CDB7DEB78A836B8381E089838B81B0
:102300008832E0F48A81282F30E03D832C838C8151
:102310009D818130910531F02C813D812230310544
:1023200031F00AC08B8180580E94120F08C08B8147
:1023300080540E94120F03C0198201C01982898142
:102340000F900F900F900F900F90CF91DF91089505
:10235000DF93CF93CDB7DEB729970FB6F894DEBFE2
:102360000FBECDBF8B837D836C834E832F8381E033
:102370008A838F81883208F076C08E81813021F087
:102380008E81823009F06FC08B81282F30E0398731
:1023900028878885998583309105A9F12885398515
:1023A000243031057CF4888599858130910519F1B7
:1023B000288539852230310514F58885998500975F
:1023C000B1F035C0288539852530310521F1888562
:1023D000998585309105DCF02885398526303105D1
:1023E000F1F08885998587309105E9F020C080E477
:1023F0000E94120F1DC088E40E94120F19C080E5D0
:102400000E94120F15C088E50E94120F11C080E6CD
:102410000E94120F0DC088E60E94120F09C080E7CB
:102420000E94120F05C088E70E94120F01C01A8295
:1024300019820EC08981282F30E08C819D81FC019A
:10244000E20FF31F80810E94FC0F89818F5F8983D7
:102450008981883078F38E816F810E9474118B811D
:102460000E94FC0F01C01A828A8129960FB6F89447
:10247000DEBF0FBECDBFCF91DF9108950F931F93A5
:10248000DF93CF93CDB7DEB7C056D0400FB6F894E8
:10249000DEBF0FBECDBF0E94DE070E944F060E9426
:1024A0004F0C9E01255A3F4F80E0B9010E948E06D5
:1024B0009E01235A3F4F81E0B9010E948E069E0182
:1024C000215A3F4F82E0B9010E948E06FE01E55A73
:1024D000FF4F80819181CC01A0E0B0E028E833E19A
:1024E00040E050E0BC01CD010E942E17DC01CB0181
:1024F000072E7AE0B695A795979587957A95D1F7A7
:10250000702DFE01E75AFF4F91838083FE01E35A4D
:10251000FF4F80819181CC01A0E0B0E028E833E159
:1025200040E050E0BC01CD010E942E17DC01CB0140
:10253000072E7AE0B695A795979587957A95D1F766
:10254000702DFE01E95AFF4F91838083FE01E15A0D
:10255000FF4F80819181CC01A0E0B0E028E833E119
:1025600040E050E0BC01CD010E942E17DC01CB0100
:10257000072E7AE0B695A795979587957A95D1F726
:10258000702DFE01EB5AFF4F91838083FE01E75AC5
:10259000FF4F808191812FE08C33920708F4F1C0C6
:1025A000FE01E75AFF4F80819181E0E185309E076F
:1025B00008F0E7C0FE01E95AFF4F80819181FFE0FA
:1025C000803A9F0708F4DDC0FE01E95AFF4F808181
:1025D000918120E18936920708F0D3C0FE01EB5AC1
:1025E000FF4F80819181E0E18A399E0708F4C9C0DC
:1025F000FE01EB5AFF4F80819181F0E18F3F9F07F1
:1026000008F0BFC081E00E94120FFE01EF5AFF4F99
:1026100080E090E0A0E0B0E480839183A283B38364
:102620008E01035B1F4FFE01EF5AFF4F60817181E6
:102630008281938120E030E04AEF54E40E941F023F
:10264000DC01CB01F80180839183A283B383FE0177
:10265000E35BFF4F608171818281938120E030E0F4
:1026600040E85FE30E942504882344F4FE01E55B13
:10267000FF4F81E090E09183808364C0FE01E35BC3
:10268000FF4F608171818281938120E03FEF4FE7AE
:1026900057E40E94C50318160CF043C0FE01EF5A20
:1026A000FF4F608171818281938120E030E040E2C0
:1026B00051E40E941F02DC01CB018E01055B1F4F1C
:1026C000BC01CD010E944900DC01CB01F8019183DE
:1026D00080831FC0FE01E75BFF4F88EC90E0918391
:1026E0008083FE01E75BFF4F808191810197F1F7C5
:1026F000FE01E75BFF4F91838083DE01A55BBF4F47
:10270000FE01E55BFF4F80819181019711969C93BB
:102710008E93FE01E55BFF4F808191810097D1F69A
:1027200027C08E01055B1F4FFE01E35BFF4F6081F9
:102730007181828193810E944900DC01CB01F80103
:1027400091838083DE01A95BBF4FFE01E55BFF4FF4
:10275000808191818D939C93FE01E95BFF4F808185
:1027600091810197F1F7FE01E95BFF4F918380832F
:1027700081E060E00E94741180E690E00E94E61023
:10278000FAC2FE01E75AFF4F80819181FDE08E3D44
:102790009F0708F4C3C0FE01E75AFF4F8081918173
:1027A0002EE0873A920708F0B9C0FE01E95AFF4FC0
:1027B00080819181EFE08C339E0708F4AFC0FE0169
:1027C000E95AFF4F80819181F0E189369F0708F037
:1027D000A5C0FE01EB5AFF4F8081918121E1823635
:1027E000920708F49BC0FE01EB5AFF4F8081918154
:1027F000E1E1893F9E0708F091C081E00E94120F3D
:10280000FE01ED5BFF4F80E090E0A0E0B0E480834C
:102810009183A283B3838E01015C1F4FFE01ED5BA8
:10282000FF4F608171818281938120E030E04AEF27
:1028300054E40E941F02DC01CB01F80180839183E4
:10284000A283B383FE01FF966081718182819381AF
:1028500020E030E040E85FE30E94250488232CF468
:1028600081E090E09EAF8DAF46C0FE01FF96608193
:1028700071818281938120E03FEF4FE757E40E940E
:10288000C503181664F5FE01ED5BFF4F6081718191
:102890008281938120E030E040E251E40E941F02F7
:1028A000DC01CB01BC01CD010E944900DC01CB0160
:1028B0009EAF8DAF0FC088EC90E09CAF8BAF8BAD1F
:1028C0009CAD0197F1F79CAF8BAF8DAD9EAD01979D
:1028D0009EAF8DAF8DAD9EAD009769F716C0FE011E
:1028E000FF9660817181828193810E944900DC01A1
:1028F000CB019EAF8DAF8DAD9EAD9AAF89AF89AD47
:102900009AAD0197F1F79AAF89AF81E060E00E943C
:10291000741189E690E00E94E6102DC2FE01E75A8C
:10292000FF4F80819181FFE08A309F0708F4B0C09B
:10293000FE01E75AFF4F808191812FE0813A920793
:1029400008F0A6C0FE01E95AFF4F80819181EFE0B7
:102950008C339E0708F49CC0FE01E95AFF4F80812A
:102960009181F0E18D3C9F0708F092C0FE01EB5A87
:10297000FF4F8081918121E18236920708F488C05F
:10298000FE01EB5AFF4F80819181E1E1893F9E0773
:1029900008F07EC081E00E94120F80E090E0A0E08D
:1029A000B0E48DAB9EABAFABB8AF6DA97EA98FA9DC
:1029B00098AD20E030E04AEF54E40E941F02DC01B1
:1029C000CB0189AB9AABABABBCAB69A97AA98BA99C
:1029D0009CA920E030E040E85FE30E9425048823C2
:1029E0002CF481E090E098AB8FA73FC069A97AA949
:1029F0008BA99CA920E03FEF4FE757E40E94C50355
:102A000018164CF56DA97EA98FA998AD20E030E08D
:102A100040E251E40E941F02DC01CB01BC01CD0168
:102A20000E944900DC01CB0198AB8FA70FC088EC56
:102A300090E09EA78DA78DA59EA50197F1F79EA773
:102A40008DA78FA598A9019798AB8FA78FA598A957
:102A5000009769F714C069A97AA98BA99CA90E945B
:102A60004900DC01CB0198AB8FA78FA598A99CA743
:102A70008BA78BA59CA50197F1F79CA78BA781E05D
:102A800060E00E9474118FE690E00E94E61073C12E
:102A9000FE01E75AFF4F80819181FEE0883D9F074C
:102AA00008F4B0C0FE01E75AFF4F808191812FE00A
:102AB0008D33920708F0A6C0FE01E95AFF4F8081CE
:102AC0009181EEE084379E0708F49CC0FE01E95A2C
:102AD000FF4F80819181FEE0893D9F0708F092C001
:102AE000FE01EB5AFF4F8081918120E18A399207E4
:102AF00008F488C0FE01EB5AFF4F80819181E0E12C
:102B00008F3F9E0708F07EC081E00E94120F80E098
:102B100090E0A0E0B0E48FA398A7A9A7BAA76FA1FF
:102B200078A589A59AA520E030E04AEF54E40E94F8
:102B30001F02DC01CB018BA39CA3ADA3BEA36BA1A1
:102B40007CA18DA19EA120E030E040E85FE30E94DF
:102B5000250488232CF481E090E09AA389A33FC048
:102B60006BA17CA18DA19EA120E03FEF4FE757E430
:102B70000E94C50318164CF56FA178A589A59AA5E2
:102B800020E030E040E251E40E941F02DC01CB0172
:102B9000BC01CD010E944900DC01CB019AA389A3AD
:102BA0000FC088EC90E098A38F8F8F8D98A101972C
:102BB000F1F798A38F8F89A19AA101979AA389A36E
:102BC00089A19AA1009769F714C06BA17CA18DA17E
:102BD0009EA10E944900DC01CB019AA389A389A18F
:102BE0009AA19E8F8D8F8D8D9E8D0197F1F79E8F6F
:102BF0008D8F81E060E00E94741184E790E00E9474
:102C0000E610B9C0FE01E75AFF4F80819181FEE0D6
:102C100080319F0708F4AFC0FE01E75AFF4F808163
:102C200091812EE08437920708F0A5C0FE01E95A91
:102C3000FF4F80819181EEE084379E0708F49BC0AE
:102C4000FE01E95AFF4F80819181FEE0893D9F0797
:102C500008F091C0FE01EB5AFF4F8081918120E185
:102C60008A39920708F487C0FE01EB5AFF4F808132
:102C70009181E0E18F3F9E0708F07DC081E00E94D6
:102C8000120F80E090E0A0E0B0E4898F9A8FAB8FC4
:102C9000BC8F698D7A8D8B8D9C8D20E030E04AEF62
:102CA00054E40E941F02DC01CB018D8B9E8BAF8B05
:102CB000B88F6D897E898F89988D20E030E040E85B
:102CC0005FE30E94250488232CF481E090E09C8B34
:102CD0008B8B3FC06D897E898F89988D20E03FEF77
:102CE0004FE757E40E94C50318164CF5698D7A8D9D
:102CF0008B8D9C8D20E030E040E251E40E941F0269
:102D0000DC01CB01BC01CD010E944900DC01CB01FB
:102D10009C8B8B8B0FC088EC90E09A8B898B898978
:102D20009A890197F1F79A8B898B8B899C890197F6
:102D30009C8B8B8B8B899C89009769F714C06D895C
:102D40007E898F89988D0E944900DC01CB019C8B84
:102D50008B8B8B899C89988B8F878F85988901971E
:102D6000F1F7988B8F8781E060E00E9474118CE707
:102D700090E00E94E61080E090E0A8ECB2E48B873F
:102D80009C87AD87BE876B857C858D859E8520E081
:102D900030E04AEF54E40E941F02DC01CB018F8334
:102DA0009887A987BA876F81788589859A8520E079
:102DB00030E040E85FE30E94250488232CF481E0A2
:102DC00090E09E838D833FC06F81788589859A8549
:102DD00020E03FEF4FE757E40E94C50318164CF57B
:102DE0006B857C858D859E8520E030E040E251E456
:102DF0000E941F02DC01CB01BC01CD010E944900F1
:102E0000DC01CB019E838D830FC088EC90E09C8316
:102E10008B838B819C810197F1F79C838B838D81C0
:102E20009E8101979E838D838D819E81009769F796
:102E300038CB6F81788589859A850E944900DC01AD
:102E4000CB019E838D838D819E819A838983898125
:102E50009A810197F1F79A83898323CB629FD001EE
:102E6000739FF001829FE00DF11D649FE00DF11D45
:102E7000929FF00D839FF00D749FF00D659FF00DF4
:102E80009927729FB00DE11DF91F639FB00DE11DE1
:102E9000F91FBD01CF0111240895AA1BBB1B51E1ED
:102EA00007C0AA1FBB1FA617B70710F0A61BB70BBA
:102EB000881F991F5A95A9F780959095BC01CD015F
:102EC00008952F923F924F925F926F927F928F92CE
:102ED0009F92AF92BF92CF92DF92EF92FF920F93A9
:102EE0001F93CF93DF93CDB7DEB7CA1BDB0B0FB6B3
:102EF000F894DEBF0FBECDBF09942A883988488870
:102F00005F846E847D848C849B84AA84B984C88405
:102F1000DF80EE80FD800C811B81AA81B981CE0FFC
:102F2000D11D0FB6F894DEBF0FBECDBFED010895E1
:042F3000F894FFCF43
:102F3400506572666563742100476F6F64210052A7
:102F44006F636B0053636973736F720050617065D4
:0A2F54007200000000000000000001
:00000001FF
